{
  "_format": "hh-sol-artifact-1",
  "contractName": "Keyboards",
  "sourceName": "contracts/Keyboard.sol",
  "abi": [
    {
      "anonymous": false,
      "inputs": [
        {
          "components": [
            {
              "internalType": "enum Keyboards.KeyboardKind",
              "name": "kind",
              "type": "uint8"
            },
            {
              "internalType": "bool",
              "name": "isPBT",
              "type": "bool"
            },
            {
              "internalType": "string",
              "name": "filter",
              "type": "string"
            },
            {
              "internalType": "address",
              "name": "owner",
              "type": "address"
            }
          ],
          "indexed": false,
          "internalType": "struct Keyboards.Keyboard",
          "name": "keyboard",
          "type": "tuple"
        },
        {
          "indexed": true,
          "internalType": "address",
          "name": "owner",
          "type": "address"
        }
      ],
      "name": "KeyboardCreated",
      "type": "event"
    },
    {
      "anonymous": false,
      "inputs": [
        {
          "indexed": false,
          "internalType": "address",
          "name": "recipient",
          "type": "address"
        },
        {
          "indexed": false,
          "internalType": "uint256",
          "name": "amount",
          "type": "uint256"
        }
      ],
      "name": "TipSent",
      "type": "event"
    },
    {
      "inputs": [
        {
          "internalType": "enum Keyboards.KeyboardKind",
          "name": "_kind",
          "type": "uint8"
        },
        {
          "internalType": "bool",
          "name": "_isPBT",
          "type": "bool"
        },
        {
          "internalType": "string",
          "name": "_filter",
          "type": "string"
        }
      ],
      "name": "create",
      "outputs": [],
      "stateMutability": "nonpayable",
      "type": "function"
    },
    {
      "inputs": [
        {
          "internalType": "uint256",
          "name": "",
          "type": "uint256"
        }
      ],
      "name": "createdKeyboards",
      "outputs": [
        {
          "internalType": "enum Keyboards.KeyboardKind",
          "name": "kind",
          "type": "uint8"
        },
        {
          "internalType": "bool",
          "name": "isPBT",
          "type": "bool"
        },
        {
          "internalType": "string",
          "name": "filter",
          "type": "string"
        },
        {
          "internalType": "address",
          "name": "owner",
          "type": "address"
        }
      ],
      "stateMutability": "view",
      "type": "function"
    },
    {
      "inputs": [],
      "name": "getKeyboards",
      "outputs": [
        {
          "components": [
            {
              "internalType": "enum Keyboards.KeyboardKind",
              "name": "kind",
              "type": "uint8"
            },
            {
              "internalType": "bool",
              "name": "isPBT",
              "type": "bool"
            },
            {
              "internalType": "string",
              "name": "filter",
              "type": "string"
            },
            {
              "internalType": "address",
              "name": "owner",
              "type": "address"
            }
          ],
          "internalType": "struct Keyboards.Keyboard[]",
          "name": "",
          "type": "tuple[]"
        }
      ],
      "stateMutability": "view",
      "type": "function"
    },
    {
      "inputs": [
        {
          "internalType": "uint256",
          "name": "_index",
          "type": "uint256"
        }
      ],
      "name": "tip",
      "outputs": [],
      "stateMutability": "payable",
      "type": "function"
    }
  ],
  "bytecode": "0x608060405234801561001057600080fd5b50610e00806100206000396000f3fe60806040526004361061003f5760003560e01c806352810aa114610044578063778bc8471461006f578063d80ad431146100af578063e8b69bc3146100d8575b600080fd5b34801561005057600080fd5b506100596100f4565b6040516100669190610b0b565b60405180910390f35b34801561007b57600080fd5b5061009660048036038101906100919190610880565b6102dd565b6040516100a69493929190610b2d565b60405180910390f35b3480156100bb57600080fd5b506100d660048036038101906100d19190610814565b6103df565b005b6100f260048036038101906100ed9190610880565b6105f5565b005b60606000805480602002602001604051908101604052809291908181526020016000905b828210156102d457838290600052602060002090600302016040518060800160405290816000820160009054906101000a900460ff166003811115610186577f4e487b7100000000000000000000000000000000000000000000000000000000600052602160045260246000fd5b60038111156101be577f4e487b7100000000000000000000000000000000000000000000000000000000600052602160045260246000fd5b81526020016000820160019054906101000a900460ff161515151581526020016001820180546101ed90610cd7565b80601f016020809104026020016040519081016040528092919081815260200182805461021990610cd7565b80156102665780601f1061023b57610100808354040283529160200191610266565b820191906000526020600020905b81548152906001019060200180831161024957829003601f168201915b505050505081526020016002820160009054906101000a900473ffffffffffffffffffffffffffffffffffffffff1673ffffffffffffffffffffffffffffffffffffffff1673ffffffffffffffffffffffffffffffffffffffff168152505081526020019060010190610118565b50505050905090565b600081815481106102ed57600080fd5b90600052602060002090600302016000915090508060000160009054906101000a900460ff16908060000160019054906101000a900460ff169080600101805461033690610cd7565b80601f016020809104026020016040519081016040528092919081815260200182805461036290610cd7565b80156103af5780601f10610384576101008083540402835291602001916103af565b820191906000526020600020905b81548152906001019060200180831161039257829003601f168201915b5050505050908060020160009054906101000a900473ffffffffffffffffffffffffffffffffffffffff16905084565b60006040518060800160405280866003811115610425577f4e487b7100000000000000000000000000000000000000000000000000000000600052602160045260246000fd5b8152602001851515815260200184848080601f016020809104026020016040519081016040528093929190818152602001838380828437600081840152601f19601f8201169050808301925050505050505081526020013373ffffffffffffffffffffffffffffffffffffffff168152509050600081908060018154018082558091505060019003906000526020600020906003020160009091909190915060008201518160000160006101000a81548160ff02191690836003811115610515577f4e487b7100000000000000000000000000000000000000000000000000000000600052602160045260246000fd5b021790555060208201518160000160016101000a81548160ff02191690831515021790555060408201518160010190805190602001906105569291906106e8565b5060608201518160020160006101000a81548173ffffffffffffffffffffffffffffffffffffffff021916908373ffffffffffffffffffffffffffffffffffffffff16021790555050503373ffffffffffffffffffffffffffffffffffffffff167f946419d9d22d73b5975adca181fc314cd8e6e1d91177e4e942f700d6dffc040f826040516105e69190610b79565b60405180910390a25050505050565b6000808281548110610630577f4e487b7100000000000000000000000000000000000000000000000000000000600052603260045260246000fd5b906000526020600020906003020160020160009054906101000a900473ffffffffffffffffffffffffffffffffffffffff1690508073ffffffffffffffffffffffffffffffffffffffff166108fc349081150290604051600060405180830381858888f193505050501580156106aa573d6000803e3d6000fd5b507f171011172a05babdafffeb4c3cb97a07f0e1e7a0538eab4f4331336fb76fef0581346040516106dc929190610ae2565b60405180910390a15050565b8280546106f490610cd7565b90600052602060002090601f016020900481019282610716576000855561075d565b82601f1061072f57805160ff191683800117855561075d565b8280016001018555821561075d579182015b8281111561075c578251825591602001919060010190610741565b5b50905061076a919061076e565b5090565b5b8082111561078757600081600090555060010161076f565b5090565b60008135905061079a81610d8c565b92915050565b6000813590506107af81610da3565b92915050565b60008083601f8401126107c757600080fd5b8235905067ffffffffffffffff8111156107e057600080fd5b6020830191508360018202830111156107f857600080fd5b9250929050565b60008135905061080e81610db3565b92915050565b6000806000806060858703121561082a57600080fd5b6000610838878288016107a0565b94505060206108498782880161078b565b935050604085013567ffffffffffffffff81111561086657600080fd5b610872878288016107b5565b925092505092959194509250565b60006020828403121561089257600080fd5b60006108a0848285016107ff565b91505092915050565b60006108b58383610a0d565b905092915050565b6108c681610c5c565b82525050565b6108d581610c01565b82525050565b6108e481610c01565b82525050565b60006108f582610bab565b6108ff8185610bce565b93508360208202850161091185610b9b565b8060005b8581101561094d578484038952815161092e85826108a9565b945061093983610bc1565b925060208a01995050600181019050610915565b50829750879550505050505092915050565b61096881610c13565b82525050565b61097781610c13565b82525050565b61098681610c6e565b82525050565b61099581610c6e565b82525050565b60006109a682610bb6565b6109b08185610bdf565b93506109c0818560208601610ca4565b6109c981610d67565b840191505092915050565b60006109df82610bb6565b6109e98185610bf0565b93506109f9818560208601610ca4565b610a0281610d67565b840191505092915050565b6000608083016000830151610a25600086018261097d565b506020830151610a38602086018261095f565b5060408301518482036040860152610a50828261099b565b9150506060830151610a6560608601826108cc565b508091505092915050565b6000608083016000830151610a88600086018261097d565b506020830151610a9b602086018261095f565b5060408301518482036040860152610ab3828261099b565b9150506060830151610ac860608601826108cc565b508091505092915050565b610adc81610c52565b82525050565b6000604082019050610af760008301856108bd565b610b046020830184610ad3565b9392505050565b60006020820190508181036000830152610b2581846108ea565b905092915050565b6000608082019050610b42600083018761098c565b610b4f602083018661096e565b8181036040830152610b6181856109d4565b9050610b7060608301846108db565b95945050505050565b60006020820190508181036000830152610b938184610a70565b905092915050565b6000819050602082019050919050565b600081519050919050565b600081519050919050565b6000602082019050919050565b600082825260208201905092915050565b600082825260208201905092915050565b600082825260208201905092915050565b6000610c0c82610c32565b9050919050565b60008115159050919050565b6000819050610c2d82610d78565b919050565b600073ffffffffffffffffffffffffffffffffffffffff82169050919050565b6000819050919050565b6000610c6782610c80565b9050919050565b6000610c7982610c1f565b9050919050565b6000610c8b82610c92565b9050919050565b6000610c9d82610c32565b9050919050565b60005b83811015610cc2578082015181840152602081019050610ca7565b83811115610cd1576000848401525b50505050565b60006002820490506001821680610cef57607f821691505b60208210811415610d0357610d02610d38565b5b50919050565b7f4e487b7100000000000000000000000000000000000000000000000000000000600052602160045260246000fd5b7f4e487b7100000000000000000000000000000000000000000000000000000000600052602260045260246000fd5b6000601f19601f8301169050919050565b60048110610d8957610d88610d09565b5b50565b610d9581610c13565b8114610da057600080fd5b50565b60048110610db057600080fd5b50565b610dbc81610c52565b8114610dc757600080fd5b5056fea2646970667358221220c0444ab8395aa7d5323b717fcc858eba24026a573d129cae2b758fabd967760664736f6c63430008040033",
  "linkReferences": {},
  "deployedLinkReferences": {}
}